:100000000C9432000C9451000C944F000C944F004F
:100010000C944F000C94F6010C944F000C944F007C
:100020000C944F000C944F000C944F000C949500CE
:100030000C944F000C944F000C944F000C944F0004
:100040000C944F000C944F000C944F000C944F00F4
:100050000C944F001B041F04230427042B042F04BB
:100060003304370411241FBECFE5D8E0DEBFCDBF77
:1000700010E0A0E6B0E0E6EAF4E102C005900D92DF
:10008000A236B107D9F720E0A2E6B0E001C01D9288
:10009000A83AB207E1F70E94ED020C94510A0C94C1
:1000A00000001F920F920FB60F9211242F933F93CF
:1000B0004F935F936F937F938F939F93AF93BF9370
:1000C000EF93FF939091890081E0892780938900C5
:1000D000811113C00E94E2030E94EC030E94FC0302
:1000E0000E942E060E944007109288000E94690319
:1000F0000E9475030E947B0307C00E94DC030E94DC
:100100003F0381E080938700FF91EF91BF91AF9112
:100110009F918F917F916F915F914F913F912F911F
:100120000F900FBE0F901F9018951F920F920FB651
:100130000F9211244F925F926F927F928F929F92B3
:10014000AF92BF92CF92DF92EF92FF920F932F93D5
:100150003F934F935F936F937F938F939F93AF934F
:10016000BF93EF93FF9380918700813061F41092E9
:100170006600109267001092680010926900109259
:10018000870080936B0080916B00882339F00E9478
:100190003F03809161000E94810304C00E946903B3
:1001A0000E94750340906600509067006090680060
:1001B000709069006091920070919300809194001A
:1001C00090919500461657066806790689F40E94B4
:1001D0003F030E942E061092880010926B0010922E
:1001E000660010926700109268001092690025C0A6
:1001F0002DEC3CEC4CEC5CEC0E94F00900E20E941F
:100200001D0A822E932EA42EB52EA501940156957B
:100210004795379527955695479537952795C30167
:10022000B2010E94BD09672B682B692B31F49091B4
:100230006B0081E0892780936B008091660090912C
:100240006700A0916800B09169000196A11DB11DE1
:100250008093660090936700A0936800B093690054
:10026000FF91EF91BF91AF919F918F917F916F918E
:100270005F914F913F912F910F91FF90EF90DF9001
:10028000CF90BF90AF909F908F907F906F905F9036
:100290004F900F900FBE0F901F901895813001F571
:1002A000909161009B34E0F465E0690F6093610018
:1002B0008091600090E00E94900581E0809385002D
:1002C000809387000E942E0685E00E94D0052FEFC4
:1002D00048E853E160E070E080E00E94760608950F
:1002E000613001F5909161009432E0F06BEF690F9D
:1002F000609361008091600090E00E94900581E031
:1003000080938500809387000E942E0685E00E94DE
:10031000D0052FEF48E853E160E070E080E00E94F4
:1003200076060895613021F490916100933231F0A6
:100330008130A1F4809161008B3481F481E080935D
:1003400087000E942E0685E00E94D0052FEF48E826
:1003500053E160E070E080E00E94760608958091AD
:100360008800811119C08091A600813021F0809110
:10037000A700813089F481E08093880080936B002E
:1003800085E00E94D0052FEF48E853E160E070E07F
:1003900080E00E94760608958091A600813021F0C9
:1003A0009091A700913021F46091A7000E944E0126
:1003B0000895AC0190E060E070E00BC0E92FF0E040
:1003C000EE0FFF1FE40FF51F20813181620F731FB5
:1003D0009F5F9A3098F380E090E00E94990820E0B7
:1003E00030E040E251E40E94F80708951F920F9216
:1003F0000FB60F9211242F933F934F935F936F93F8
:100400007F938F939F93AF93BF93CF93DF93EF939C
:10041000FF938091620090916300A0916400B0917D
:1004200065004091A0005091A1006091A2007091E0
:10043000A30084179507A607B70760F40196A11DCE
:10044000B11D8093620090936300A0936400B09309
:10045000650041C0C0916C00D0E00E943E04BC0128
:1004600080E090E00E94990820E030E04AEF53E4F9
:100470000E94500920E030E040E85AE30E94500911
:10048000CC0FDD1FC359DF4F0E946A087983688350
:1004900080916C008F5F80936C008A30A0F0109286
:1004A0006C008DE690E00E94D9016093810070930A
:1004B0008200809383009093840080918600813035
:1004C00011F40E94F00310926200109263001092E7
:1004D000640010926500FF91EF91DF91CF91BF9181
:1004E000AF919F918F917F916F915F914F913F91CC
:1004F0002F910F900FBE0F901F901895CF92DF9203
:10050000EF92FF92CF93DF93C0916100D0E0BE01E4
:100510000D2E000C880B990B0E949B08C090810047
:10052000D0908200E0908300F0908400A7019601B3
:100530000E94F307811118C00E94EC030E94FC0383
:100540001092860080916A00811140C00E940604CA
:100550008FE39CE90197F1F700C000000E940C04B2
:1005600081E080936A0032C0BE0165507109072E98
:10057000000C880B990B0E949B089B01AC01C701E2
:10058000B6010E94F307181644F081E080938600BC
:1005900010926A000E94FC0319C0BE016B5F7F4F7E
:1005A000072E000C880B990B0E949B089B01AC0145
:1005B000C701B6010E944B09882344F010928600BF
:1005C00010926A000E94EC030E94F803DF91CF9121
:1005D000FF90EF90DF90CF90089580E00E94A505F6
:1005E00060E080E00E94380660E080E00E944A07F8
:1005F00081E00E9412040E94AC030E94C1030E9489
:10060000D6030E94E8030E94F4030E9400040E94A3
:10061000CB038093A7000E94B6038093A60080912D
:1006200089008823A1F380918500813039F480917D
:10063000600090E00E949C058093610085E00E942C
:10064000E2062FEF44E650E060E070E080E00E94B8
:1006500087070E94AF010E947E028091880081116D
:10066000D6CF60918100709182008091830090913B
:1006700084000E946A08862F0E948103C8CF41E04F
:1006800061E081E00E94460441E062E081E00E9476
:10069000460441E064E080E00E94460441E065E0F9
:1006A00080E00E94460441E066E080E00E9446044B
:1006B00041E067E080E00E94460441E063E081E0C1
:1006C0000E944604089541E061E081E00E94B70481
:1006D000089540E061E081E00E94B704089541E0A0
:1006E00062E081E00E94B704089540E062E081E0AA
:1006F0000E94B704089540E063E081E00E94B704DF
:100700000895CF939DEC899F912D1124292F269533
:1007100026952695220F322F330F330F230F821B7E
:10072000282FC92FC695C695C6952295207F2BBB2D
:100730000E9463030E9475038FE99FE00197F1F720
:1007400000C000009C2F9295907F9BBB0E94690384
:100750000E946F03CF91089540E060E081E00E9425
:10076000460460E081E00E945C05089560E081E05D
:100770000E942805EFE3FCE93197F1F700C0000083
:10078000089540E066E083E00E94460466E083E06E
:100790000E945C05089566E083E00E942805EFE36F
:1007A000FCE93197F1F700C00000089541E062E0F4
:1007B00082E00E944604089541E062E082E00E94E7
:1007C000B704089540E062E082E00E94B704089513
:1007D00084B3806884BB089585B38F7785BB089503
:1007E00085B3805885BB089581B3886081BB089527
:1007F00082B3886082BB089582B3877F82BB0895ED
:1008000041E062E080E00E944604089541E062E039
:1008100080E00E94B704089540E062E080E00E941A
:10082000B704089590E08830910520F5FC01E65D5D
:10083000FF4F0C94DF0987B1806487B91BC087B173
:10084000816487B917C087B1826487B913C087B143
:10085000836487B90FC087B1846487B90BC087B13F
:10086000856487B907C087B1866487B903C087B13B
:10087000876487B986B1876A86B9089586B180642E
:1008800086B9349BFECF84B195B10895442319F005
:100890004130C9F10895813091F028F08230D9F0CB
:1008A000833029F108952AB381E090E002C0880FD7
:1008B000991F6A95E2F7809582238ABB089527B332
:1008C00081E090E002C0880F991F6A95E2F7809559
:1008D000822387BB089524B381E090E002C0880F93
:1008E000991F6A95E2F78095822384BB089521B30E
:1008F00081E090E002C0880F991F6A95E2F7809529
:10090000822381BB0895813089F028F08230C9F0BC
:10091000833011F108952AB381E090E002C0880F7E
:10092000991F6A95E2F7822B8ABB089527B381E06D
:1009300090E002C0880F991F6A95E2F7822B87BB6F
:10094000089524B381E090E002C0880F991F6A9552
:10095000E2F7822B84BB089521B381E090E002C0CE
:10096000880F991F6A95E2F7822B81BB0895442373
:1009700019F04130C9F10895813091F028F08230AA
:10098000D9F0833029F108952BB381E090E002C0C3
:10099000880F991F6A95E2F7809582238BBB089593
:1009A00028B381E090E002C0880F991F6A95E2F7B2
:1009B0008095822388BB089525B381E090E002C032
:1009C000880F991F6A95E2F78095822385BB089569
:1009D00022B381E090E002C0880F991F6A95E2F788
:1009E0008095822382BB0895813089F028F082307F
:1009F000C9F0833011F108952BB381E090E002C07B
:100A0000880F991F6A95E2F7822B8BBB089528B354
:100A100081E090E002C0880F991F6A95E2F7822B6F
:100A200088BB089525B381E090E002C0880F991F2C
:100A30006A95E2F7822B85BB089522B381E090E0AE
:100A400002C0880F991F6A95E2F7822B82BB089536
:100A5000EFE3FCE93197F1F700C00000813079F055
:100A600028F08230A9F08330E1F024C089B390E00F
:100A700002C0959587956A95E2F78170089586B3CF
:100A800090E002C0959587956A95E2F78170089588
:100A900083B390E002C0959587956A95E2F78170DF
:100AA000089580B390E002C0959587956A95E2F726
:100AB0008170089580E00895813089F028F08230B7
:100AC000C9F0833011F108952BB381E090E002C0AA
:100AD000880F991F6A95E2F7822B8BBB089528B384
:100AE00081E090E002C0880F991F6A95E2F7822B9F
:100AF00088BB089525B381E090E002C0880F991F5C
:100B00006A95E2F7822B85BB089522B381E090E0DD
:100B100002C0880F991F6A95E2F7822B82BB089565
:100B2000E199FECF9FBB8EBB6DBB8CB384608CBB49
:100B30008CB382608CBB0895E199FECF9FBB8EBBC6
:100B40008CB381608CBB8DB3089591B39B7F91BBB7
:100B500091B3977F91BB91B39B7F91BB78948111A7
:100B60000AC08BB780648BBF85B7826085BF85B7AD
:100B7000816085BF0895813051F48BB780688BBF49
:100B800085B7886085BF85B7846085BF089582304A
:100B900031F48BB780628BBF84B7806484BF0895C3
:100BA000833061F128F4813049F08230B9F0089542
:100BB0008430A1F1853009F441C0089581E090E0CE
:100BC000909397008093960083B78B7F83BF83B702
:100BD0008D7F83BF83B7816083BF089588E090E0F5
:100BE000909397008093960083B78B7F83BF83B7E2
:100BF000826083BF83B78E7F83BF089580E490E0D7
:100C0000909397008093960083B78B7F83BF83B7C1
:100C1000826083BF83B7816083BF089580E091E0E5
:100C2000909397008093960083B7846083BF83B7C7
:100C30008D7F83BF83B78E7F83BF089580E094E06C
:100C4000909397008093960083B7846083BF83B7A7
:100C50008D7F83BF83B7816083BF089583B78B7F08
:100C600083BF83B78D7F83BF83B78E7F83BF089594
:100C7000F894882319F0823059F013C083B7877F26
:100C800083BF83B78F7B83BF89B7816089BF09C06A
:100C900083B7886083BF83B78F7B83BF89B7826048
:100CA00089BF613069F028F0623089F06330B1F0BB
:100CB0001BC083B78F7D83BF83B78F7E83BF14C074
:100CC00083B78F7D83BF83B7806183BF0DC083B738
:100CD000806283BF83B78F7E83BF06C083B7806285
:100CE00083BF83B7806183BF789408950F93811188
:100CF00037C02091960030919700F901F295E29566
:100D0000EF70EF27FF70EF27A8EEB3E09A01AB0179
:100D10000E94E5092E2F30E040E050E00E94BD091E
:100D2000BB27A52F942F832F0196A11DB11D809362
:100D3000920090939300A0939400B093950080E06C
:100D400091E0A0E0B0E0821B9109A109B109809374
:100D50008A0090938B00A0938C00B0938D0030C0DC
:100D6000823071F52CBF2091960030919700F901E7
:100D7000F295E295EF70EF27FF70EF27A8EEB3E052
:100D80009A01AB010E94E5092E2F30E040E050E0CF
:100D90000E94BD09CA01B9010CB7202F30E040E024
:100DA00050E00E94BD09DA01C9010196A11DB11DE3
:100DB00080938E0090938F00A0939000B093910049
:100DC0000F910895833061F128F4813049F0823029
:100DD000B9F008958430A1F1853009F441C0089537
:100DE00081E090E09093A5008093A40085B58B7F6F
:100DF00085BD85B58D7F85BD85B5816085BD08952F
:100E000088E090E09093A5008093A40085B58B7F47
:100E100085BD85B5826085BD85B58E7F85BD08950C
:100E200080E490E09093A5008093A40085B58B7F2B
:100E300085BD85B5826085BD85B5816085BD089518
:100E400080E091E09093A5008093A40085B5846034
:100E500085BD85B58D7F85BD85B58E7F85BD0895A2
:100E600080E094E09093A5008093A40085B5846011
:100E700085BD85B5826085BD85B5816085BD0895D8
:100E800085B58B7F85BD85B58D7F85BD85B58E7F0D
:100E900085BD0895882319F0823059F013C085B5B7
:100EA000877F85BD85B58F7B85BD89B7806489BF08
:100EB00009C085B5886085BD85B58F7B85BD89B73F
:100EC000806889BF613069F028F0623089F0633052
:100ED000B1F01BC085B58F7D85BD85B58F7E85BD85
:100EE00014C085B58F7D85BD85B5806185BD0DC07C
:100EF00085B5806285BD85B58F7E85BD06C085B50B
:100F0000806285BD85B5806185BD789408950F9315
:100F1000811137C02091A4003091A500F901F2950C
:100F2000E295EF70EF27FF70EF27A8EEB3E09A018C
:100F3000AB010E94E5092E2F30E040E050E00E9416
:100F4000BD09BB27A52F942F832F0196A11DB11D8D
:100F50008093A0009093A100A093A200B093A3005F
:100F600080E091E0A0E0B0E0821B9109A109B10905
:100F70008093980090939900A0939A00B0939B005F
:100F800030C0823071F523BD2091A4003091A500BE
:100F9000F901F295E295EF70EF27FF70EF27A8EEC9
:100FA000B3E09A01AB010E94E5092E2F30E040E04A
:100FB00050E00E94BD09CA01B9010CB7202F30E0F2
:100FC00040E050E00E94BD09DA01C9010196A11D6F
:100FD000B11D80939C0090939D00A0939E00B093C0
:100FE0009F000F9108950E94D60808F481E00895AB
:100FF0000E940C080C9411090E940A0958F00E94E2
:10100000030940F029F45F3F29F00C94FA085111CC
:101010000C9445090C9400090E94220968F3992355
:10102000B1F3552391F3951B550BBB27AA276217E4
:101030007307840738F09F5F5F4F220F331F441FF1
:10104000AA1FA9F335D00E2E3AF0E0E832D0915025
:101050005040E695001CCAF72BD0FE2F29D0660F12
:10106000771F881FBB1F261737074807AB07B0E855
:1010700009F0BB0B802DBF01FF2793585F4F3AF05B
:101080009E3F510578F00C94FA080C9445095F3F97
:10109000E4F3983ED4F3869577956795B795F795E1
:1010A0009F5FC9F7880F911D9695879597F90895C9
:1010B000E1E0660F771F881FBB1F62177307840765
:1010C000BA0720F0621B730B840BBA0BEE1F88F774
:1010D000E09508950E942A0988F09F5798F0B92F4B
:1010E0009927B751B0F0E1F0660F771F881F991F5D
:1010F0001AF0BA95C9F714C0B13091F00E944409B2
:10110000B1E008950C944409672F782F8827B85FC1
:1011100039F0B93FCCF3869577956795B395D9F7B4
:101120003EF490958095709561957F4F8F4F9F4FBE
:101130000895E89409C097FB3EF4909580957095CA
:1011400061957F4F8F4F9F4F9923A9F0F92F96E913
:10115000BB279395F695879577956795B795F11188
:10116000F8CFFAF4BB0F11F460FF1BC06F5F7F4F25
:101170008F4F9F4F16C0882311F096E911C0772337
:1011800021F09EE8872F762F05C0662371F096E840
:10119000862F70E060E02AF09A95660F771F881F0F
:1011A000DAF7880F9695879597F90895990F0008B3
:1011B000550FAA0BE0E8FEEF16161706E807F90729
:1011C000C0F012161306E407F50798F0621B730BC4
:1011D000840B950B39F40A2661F0232B242B252B45
:1011E00021F408950A2609F4A140A6958FEF811DE8
:1011F000811D089597F99F6780E870E060E0089589
:101200009FEF80EC089500240A941616170618061E
:101210000906089500240A941216130614060506FA
:101220000895092E0394000C11F4882352F0BB0F8B
:1012300040F4BF2B11F460FF04C06F5F7F4F8F4FEE
:101240009F4F089557FD9058440F551F59F05F3F29
:1012500071F04795880F97FB991F61F09F3F79F0D8
:1012600087950895121613061406551FF2CF46955A
:10127000F1DF08C0161617061806991FF1CF8695DC
:101280007105610508940895E894BB2766277727C0
:10129000CB0197F908950E94D60808F48FEF0895BE
:1012A0000E9463090C9411090E94030938F00E94FE
:1012B0000A0920F0952311F00C94FA080C94000907
:1012C00011240C9445090E94220970F3959FC1F3E3
:1012D000950F50E0551F629FF001729FBB27F00DE4
:1012E000B11D639FAA27F00DB11DAA1F649F662739
:1012F000B00DA11D661F829F2227B00DA11D621F88
:10130000739FB00DA11D621F839FA00D611D221F41
:10131000749F3327A00D611D231F849F600D211D25
:10132000822F762F6A2F11249F5750409AF0F1F0A8
:1013300088234AF0EE0FFF1FBB1F661F771F881F11
:1013400091505040A9F79E3F510580F00C94FA0847
:101350000C9445095F3FE4F3983ED4F38695779566
:101360006795B795F795E7959F5FC1F7FE2B880FB7
:10137000911D9695879597F90895A1E21A2EAA1BBB
:10138000BB1BFD010DC0AA1FBB1FEE1FFF1FA21735
:10139000B307E407F50720F0A21BB30BE40BF50B32
:1013A000661F771F881F991F1A9469F760957095BB
:1013B000809590959B01AC01BD01CF010895EE0F82
:1013C000FF1F0590F491E02D09940E94390AA59F12
:1013D000900DB49F900DA49F800D911D1124089530
:1013E000E894DF93CF93FC01DB010E94390A7F93DD
:1013F0006F93E9019A01AC01BF93AF933F932F9391
:10140000DF010E94390A26F46C1B7D0B820B930BC3
:101410009E01EB01FC010E94480AAF91BF912F9100
:101420003F910E94480ABE01CF01F9012F913F91DF
:10143000CF91DF91089597FB10F8169400080F9351
:10144000083098F00850232F342F452F562F672F40
:10145000782F892F902DF4CF0594979587957795C0
:10146000679557954795379527950A95AAF70F9150
:101470000895A29FB001B39FC001A39F700D811D6D
:101480001124911DB29F700D811D1124911D08958D
:101490000E94390A460F571FC81FD91F08F43196FA
:0614A0000895F894FFCF4F
:0214A600403ACA
:00000001FF
